:020000040800F2
:1000000000000A20D1850008B9070008BB070008D6
:10001000BD070008BF070008C10700082D860008BB
:10002000000000000000000000000000C3070008FE
:10003000C507000800000000C7070008C90700083E
:100040002D8600082D8600082D8600082D860008C4
:100050002D8600082D8600082D8600082D860008B4
:100060002D8600082D8600082D8600082D860008A4
:100070002D8600082D8600082D8600082D86000894
:100080002D8600082D8600082D8600082D86000884
:100090002D8600082D8600082D8600082D86000874
:1000A0002D8600082D8600082D860008D10700083F
:1000B0002D8600082D8600082D8600082D86000854
:1000C0002D8600082D8600082D8600082D86000844
:1000D000000000002D8600082D8600082D860008EF
:1000E0002D8600082D8600082D8600082D86000824
:1000F0002D8600082D8600082D8600082D86000814
:100100002D8600082D8600082D8600082D86000803
:100110002D8600082D8600082D8600082D860008F3
:100120002D8600082D860008E10700082D860008AE
:100130002D8600082D8600082D8600082D860008D3
:100140002D8600082D8600082D8600082D860008C3
:100150002D8600082D8600082D8600082D860008B3
:100160002D8600082D8600082D8600082D860008A3
:100170002D8600082D8600082D8600082D86000893
:100180002D8600082D8600082D8600082D86000883
:100190002D8600082D8600082D8600082D86000873
:1001A0002D8600082D8600082D8600082D86000863
:1001B0002D8600082D8600082D8600082D86000853
:1001C0002D8600082D8600082D8600082D86000843
:1001D0002D8600082D8600082D8600082D86000833
:1001E0002D8600082D8600082D8600082D86000823
:1001F0002D8600082D8600082D8600082D86000813
:100200002D8600082D8600082D86000800000000BD
:10021000000000002D860008000000002D86000868
:100220002D8600082D8600082D8600082D860008E2
:100230002D8600082D8600082D8600082D860008D2
:0C0240002D8600082D8600082D86000881
:10024C0053B94AB9002908BF00281CBF4FF0FF3131
:10025C004FF0FF3000F00CB8ADF1080C6DE904CE96
:10026C0008F0E0F9DDF804E0DDE9022304B07047A2
:10027C00704700BF0348044B834202D0034B03B1C9
:10028C0018477047100000201000002000000000EC
:10029C00064B0749C91A891048BF0131491003D0D0
:1002AC00044B0BB101481847704700BF10000020E9
:1002BC00100000200000000010B5064C237843B954
:1002CC00FFF7D8FF044B13B10448AFF300800123B0
:1002DC00237010BD1000002000000000188B0008D7
:1002EC0008B5054B1BB105490548AFF30080BDE8C7
:1002FC000840FFF7CDBF00BF000000001400002035
:10030C00188B000830B587B002AD0024029403941A
:10031C0004940594ADF8044000F084FC01238DF89E
:10032C0008304FF000028DF809200F4A03926FF04D
:10033C00774204928DF8144003228DF815208DF825
:10034C0016308DF81740284600F080FC8DF80440DC
:10035C0044238DF8053001A800F080FC042000F047
:10036C004FFC07B030BD00BF00F0FF0870B58AB07D
:10037C0005AD002405940694079408940994334B16
:10038C00D3F88C2042F00402C3F88C20D3F88C20D4
:10039C0002F004020192019AD3F88C2042F001027F
:1003AC00C3F88C20D3F88C2002F001020292029A3E
:1003BC00D3F88C2042F00202C3F88C20D3F88C20A6
:1003CC0002F002020392039AD3F88C2042F0080246
:1003DC00C3F88C20D3F88C3003F008030493049BEF
:1003EC001B4E22464FF41861304600F0FFFC4EF2D3
:1003FC004D030593069407942946304600F036FCCD
:10040C0008230593069407942946124800F02EFC05
:10041C00232305930694079429460F4800F026FCE5
:10042C004FF4186305930123069307940894294607
:10043C00304600F01BFC04230593069407942946D0
:10044C00064800F013FC0AB070BD00BF000C02445B
:10045C00000802420000024200040242000C024268
:10046C0000B583B00B4BD3F8882042F00102C3F8DF
:10047C008820D3F8883003F001030193019B0022FC
:10048C0011461B2000F040FB1B2000F04DFB03B07D
:10049C0000BD00BF000C024472B6FEE710B5144854
:1004AC00144B0360144B00221A7080215970E12107
:1004BC009970DA701A715A714360012303720F4BF1
:1004CC00C3600F4B036140F2F453436106F03EFDF1
:1004DC0058B90C4C38220146204608F043FA212327
:1004EC0023604FF44033636110BDFFF7D5FF00BFAD
:1004FC0004030020008002402C000020B4030020E4
:10050C00140400207404002008B50E480E4B036040
:10051C00002343608360C3600374437483741022AC
:10052C00426101228261C261026242628262C262E3
:10053C00026343638363C36306F0FCFD00B908BD2B
:10054C00FFF7AAFFA002002000A4004008B5114844
:10055C00114B0360114B4360002383600122C26086
:10056C00036143618361C361036206F0CDFE50B940
:10057C000146084806F02CFF38B90146054806F03C
:10058C0054FF20B908BDFFF787FFFFF785FFFFF782
:10059C0083FF00BF4C02002000540040BB7C700065
:1005AC0008B51148114B0360114B43600023836065
:1005BC000122C260036143618361C361036206F07F
:1005CC00A3FE50B90146084806F002FF38B90146AF
:1005DC00054806F02AFF20B908BDFFF75DFFFFF7BD
:1005EC005BFFFFF759FF00BFF80100200028004413
:1005FC00BB7C700008B5002006F042FF18B906F06D
:10060C0051FF10B908BDFFF747FFFFF745FF00008A
:10061C0008B51548154B03604FF41643436000238F
:10062C008360C36003610C2242618361C361036216
:10063C004362836201F0A2F870B901460A4801F0E6
:10064C00CBF958B90146084801F0EBF940B9064816
:10065C0001F0A3F930B908BDFFF71EFFFFF71CFF2F
:10066C00FFF71AFFFFF718FFE800002000380140E1
:10067C0008B50748074B0360002343608360C360E1
:10068C000361436107F03BFF00B908BDFFF704FFAE
:10069C007C0100200080004600B59DB05022002156
:1006AC0008A808F05FF900230293039304930593C1
:1006BC0006930793214B1A6922F030021A611B69C9
:1006CC0003F030030193019B1C4B5B6913F0080F83
:1006DC00FAD01223089301200B9008220C9240238D
:1006EC000D934FF480730F932021109102231293DA
:1006FC001393149015911693179318931992002332
:10070C001A931B930DEB010001F0FAFB90B91F2318
:10071C00029303900490059006900790012102A883
:10072C0001F08CFA40B9064A136823F030031360C9
:10073C001DB000BDFFF7B0FEFFF7AEFE000802448F
:10074C000020024000B5ADF5017DFFF7DBFD00F0A8
:10075C00F7F8FFF7A1FFFFF709FEFFF781FEFFF7A0
:10076C009DFEFFF7D1FEFFF7F1FEFFF719FFFFF734
:10077C0041FFFFF74DFFFFF77BFF4FF40072694617
:10078C00084801F0B1F801224FF48071064800F0DE
:10079C002DFB8021044800F02EFB4FF4FA7000F082
:1007AC0005F9F6E7E800002000080242FEE7FEE744
:1007BC00FEE7FEE7FEE770477047704708B500F0AC
:1007CC00E3F808BD08B5024805F02EFC08BD00BFD3
:1007DC003400002008B5024800F09CFB08BD00BFA7
:1007EC00E80000202349D1F8883043F47003C1F8A5
:1007FC008830214B1A6802F0180242F001021A608C
:10080C000022DA611A62D3F800C01C480CEA00001E
:10081C0018609A62DA621A63194858639A63D8634B
:10082C001A6458649A64186820F4802018601A6559
:10083C004FF000638B60134B9B6903F06043B3F183
:10084C00604F02D0B3F1404F13D10E4BDB6913F064
:10085C00010F05D00B4B0C4ADA6002F14432DA601E
:10086C00084BDA6942F00202DA61DA6942F00102FD
:10087C00DA61704700ED00E0000C0244FBEAE2EAAA
:10088C0080020101002002403B2A190838B5294B8F
:10089C001A78002A4CD005464FF0E0231B6913F060
:1008AC0004031C460ED0244B1B684FF47A71B1FB29
:1008BC00F2F2B3FBF2F31C46204600F039F968B3B0
:1008CC00012036E000F084F901280FD0022819D05D
:1008DC000028F1D1184B1B68164A11784FF4FA52C4
:1008EC00B2FBF1F2B3FBF2F31C46E5E7114B1B78BC
:1008FC004FF47A72B2FBF3F24FF4FA43B3FBF2F318
:10090C001C46D9E70B4B1B784FF47A72B2FBF3F20F
:10091C004FF40043B3FBF2F31C46CDE702462946E5
:10092C004FF0FF3000F0F0F8044B1D60002000E0A9
:10093C00012038BD04000020000000200800002029
:10094C0010B5032000F0CEF801F090F80B4B1B6AA9
:10095C0003F00F030A4AD35CD8400A4B18600420FA
:10096C0000F0F6F80F20FFF791FF18B101231C4699
:10097C00204610BD044605F005F8F9E7000C0244CA
:10098C00388B000800000020034B1B78034A1168C9
:10099C000B441360704700BF04000020AC0400201F
:1009AC00014B1868704700BFAC04002038B50446F2
:1009BC00FFF7F6FF0546B4F1FF3F02D0044B1B785E
:1009CC001C44FFF7EDFF401BA042FAD338BD00BF1B
:1009DC0004000020044AD2F8003123F460030343DE
:1009EC00C2F80031704700BF00040044002807DB48
:1009FC0000F01F02400901239340024A42F82030C4
:100A0C00704700BF00E100E0002808DB0901C9B213
:100A1C0000F1604000F5614080F80013704700F071
:100A2C000F000901C9B2014B1954704714ED00E0D5
:100A3C0000B500F00700A0F1030CBCF1040F07D8BF
:100A4C00C0F1070E0430062806D84FF0000C03E066
:100A5C004FF0040E4FF0000C4FF0FF3303FA0EF082
:100A6C0021EA000101FA0CF103FA0CF322EA030269
:100A7C0041EA020000BDBFF35F8F4B7883600369CE
:100A8C0023F0010303614B6823F01F03CA7B43EA85
:100A9C00C2034A7B43EA42038A7B1343C3608B68DD
:100AAC0023F01F030A7B43EA42030A7813430361D2
:100ABC007047BFF35F8F0B78032B0FD83030026871
:100ACC00DB004FF0FF0C0CFA03FC22EA0C0C4A780A
:100ADC0002FA03F343EA0C03036070473430043B1F
:100AEC00EDE70000074AD36823F4E0631B041B0CFA
:100AFC00000200F4E060034343F0BF6343F40033AF
:100B0C00D360704700ED00E010B50446054BD86883
:100B1C00C0F30220FFF78CFF01462046FFF774FF5D
:100B2C0010BD00BF00ED00E008B5FFF75FFF08BD8A
:100B3C000138B0F1807F09D24FF0E02358610020DA
:100B4C0098611A6942F003021A61704701207047DC
:100B5C0002282BD013D8D8B101280FD14FF0E022A6
:100B6C00136923F004031361184AD2F8E43023F01C
:100B7C000C0343F00403C2F8E430704770470428B8
:100B8C0023D14FF0E022136943F004031361704743
:100B9C004FF0E022136923F0040313610B4AD2F8DF
:100BAC00E43023F00C03C2F8E43070474FF0E0223D
:100BBC00136923F004031361044AD2F8E43023F0E0
:100BCC000C0343F00803C2F8E4307047000C0244F5
:100BDC004FF0E023186910F004000AD1074BD3F84A
:100BEC00E43003F00C03042B05D0082B04D10220B5
:100BFC007047042070470120704700BF000C02446E
:100C0C00BFF35F8F40F00100054BC3F894005A6AA4
:100C1C0042F480325A62BFF34F8FBFF36F8F70472D
:100C2C0000ED00E0BFF35F8F074B5A6A22F480326D
:100C3C005A62D3F8942022F00102C3F89420BFF337
:100C4C004F8FBFF36F8F704700ED00E008B5014682
:100C5C000148FFF710FF08BD90ED00E008B5014614
:100C6C000148FFF726FF08BD90ED00E0F0B500222B
:100C7C006DE086682E40CF6807FA04FE4EEA060641
:100C8C008660466826EA0C064F68C7F3001C0CFA0F
:100C9C0002FC4CEA060646604E6806F0030CBCF1FA
:100CAC00030F00F09980C66835408E6806FA04F48C
:100CBC002543C5604C6814F0805F47D09508DFF879
:100CCC0028C118355CF8254002F00306F6004FF0F9
:100CDC000F0E0EFA06FE24EA0E0E424C04EA902485
:100CEC00B44044EA0E044CF82540DCF80050DC43D8
:100CFC0025EA03064F6817F4801F01D043EA050666
:100D0C00394D2E606D6804EA05064F6817F4001F14
:100D1C0001D043EA0506344D6E60D5F8845004EAE0
:100D2C0005064F6817F4003F01D043EA05062E4D27
:100D3C00C5F88460D5F880502C404E6816F4803F7E
:100D4C0001D043EA0504284BC3F8804001320B68FC
:100D5C0033FA02F445D04FF0010C0CFA02FC1CEAF9
:100D6C000303F3D04C68022C01D0122C14D1D508FB
:100D7C00083550F8254002F00706B6004FF00F0E6C
:100D8C000EFA06FE24EA0E0E0C6904F00F04B440B1
:100D9C0044EA0E0440F82540066854004FF0030E58
:100DAC000EFA04FE6FEA0E0526EA0E064F6807F0EF
:100DBC00030E0EFA04FE4EEA060606604E6806F1B5
:100DCC00FF3EBEF1010F7FF654AF112E3FF451AF31
:100DDC00122E7FF461AF4CE78E68012E7FF463AF67
:100DEC0068E7F0BD7F7F2F00002002440AB18161CB
:100DFC00704781627047436901EA030221EA0301EB
:100E0C0041EA024181617047026852E8003F23F0D9
:100E1C00C00342E800310029F6D1026802F1080350
:100E2C0053E8003F23F40003083242E80031002964
:100E3C00F3D12023C0F888307047026852E8003F95
:100E4C0023F4907342E800310029F6D1026802F1D4
:100E5C00080353E8003F23F0805323F001030832CA
:100E6C0042E800310029F1D1C36E012B06D02023BA
:100E7C00C0F88C300023C36643677047026852E8A1
:100E8C00003F23F0100342E800310029F6D1EEE7D1
:100E9C00704708B5026852E8003F23F0400342E86F
:100EAC0000310029F6D12023C0F888308167FFF784
:100EBC00EFFF08BD70477047704738B5C46DD4F864
:100ECC008820D4F88C301D4623689B6813F0800F63
:100EDC0001D0212A10D023689B6813F0400F01D059
:100EEC00222D0DD0D4F8903043F01003C4F890307C
:100EFC002046FFF7E1FF38BD2046FFF785FFEAE704
:100F0C002046FFF79AFFEDE708B5C06DFFF7D4FF59
:100F1C0008BD704738B504460268D36910689168FB
:100F2C0040F60F0C13EA0C0F0DD113F0200F14D058
:100F3C0010F0200F02D111F0805F0ED0636FC3B39D
:100F4C002046984735E0DFF800C311EA0C0C31D18C
:100F5C00DFF8F8E210EA0E0F2CD1D4F86CC0BCF11B
:100F6C00010F00F0B98013F4801F03D011F4800F2F
:100F7C0040F04E8113F0800F07D010F0800F40F03E
:100F8C004E8111F4000F40F04A8113F0400F03D052
:100F9C0010F0400F40F04A8113F4000F03D010F012
:100FAC00804F40F0478113F0807F02D00028C0F2C0
:100FBC00458138BD13F0010F0CD010F4807F09D09F
:100FCC004FF0010EC2F820E0D4F8902042EA0E0255
:100FDC00C4F8902013F0020F0BD011F0010F08D0C1
:100FEC00022225682A62D4F8902042F00402C4F848
:100FFC00902013F0040F0BD011F0010F08D0042235
:10100C0025682A62D4F8902042F00202C4F890209D
:10101C0013F0080F0ED010F0200F02D1BCF1000F0E
:10102C0008D0082225682A62D4F8902042F00802E1
:10103C00C4F8902013F4006F0CD010F0806F09D01E
:10104C004FF4006225682A62D4F8902042F0200206
:10105C00C4F89020D4F89020002AAAD013F0200FC6
:10106C0009D010F0200F02D111F0805F03D0636F14
:10107C000BB120469847D4F8902023689B6813F056
:10108C00400F02D112F0280F1FD02046FFF7D5FEDB
:10109C0023689B6813F0400F13D0D4F8803063B1F1
:1010AC00684ADA66D4F8800004F0A7FF002880D0E4
:1010BC00D4F88000C36E98477BE72046FFF7FCFE10
:1010CC0077E72046FFF7F8FE73E72046FFF7F4FEBC
:1010DC000023C4F890306CE713F0100F3FF443AFCB
:1010EC0010F0100F3FF43FAF1023136223689B687E
:1010FC0013F0400F51D0D4F8802013689B6C9BB236
:10110C00002B3BD0B4F85C10994237D9A4F85E3070
:10111C00136D812B25D0226852E8003F23F4807395
:10112C0042E800310029F6D1226802F1080353E8A5
:10113C00003F23F00103083242E800310029F3D1CB
:10114C002023C4F88C30E166226852E8003F23F07B
:10115C00100342E800310029F6D1D4F8800004F0E5
:10116C00F7FE02232367B4F85C10B4F85E309BB230
:10117C00C91A89B22046FFF7CCFE1AE7B4F85C1006
:10118C0099427FF416AF136D812B7FF412AF0223BB
:10119C0023672046FFF7BDFE0BE7B4F85C10B4F8EC
:1011AC005E309BB2C91A89B2B4F85E309BB2002B88
:1011BC003FF4FFAE00293FF4FCAE226852E8003F3A
:1011CC0023F4907342E800300028F6D1226802F133
:1011DC00080353E8003F23F0805323F00103083247
:1011EC0042E800300028F1D12023C4F88C30E066AE
:1011FC006067226852E8003F23F0100342E8003099
:10120C000028F6D1022323672046FFF782FED0E6A2
:10121C004FF480131362204600F0BCFBC9E6A36FA9
:10122C00002B3FF4C6AE20469847C2E62046FFF797
:10123C0030FEBEE6204600F0AFFBBAE6204600F0DA
:10124C00AAFBB6E6150F00080100001020010004EF
:10125C0008B50346C06D01220267C26E012A13D184
:10126C00B0F85C104A08A0F85E201B689B6C9BB21F
:10127C00994201D3A0F85E30B0F85E309BB2C91A27
:10128C0089B2FFF746FE08BDFFF715FEFBE708B570
:10129C008446C06DDCF85030812B1DD00023A0F8A3
:1012AC005E30026852E8003F23F4807342E800315C
:1012BC000029F6D1026802F1080353E8003F23F03D
:1012CC000103083242E800310029F3D12023C0F891
:1012DC008C30C36E012B19D000230367C36E012B16
:1012EC001ED10023A0F85E30DCF800309B6C9BB262
:1012FC00B0F85C10994201D9A0F85E30B0F85E30BD
:10130C009BB2C91A89B2FFF704FE08BD026852E805
:10131C00003F23F0100342E800310029F6D1DBE74F
:10132C00FFF7C8FDF1E7000038B504460168836893
:10133C000269134342691343C269134308687F4A25
:10134C0002401A430A602268536823F44053E16850
:10135C000B435360A1692268794B9A4205D003F183
:10136C0080539A4201D0236A1943936823F06E4349
:10137C0023F430630B4393602268D36A23F00F038A
:10138C00616A0B43D36223686E4A934233D0A2F551
:10139C007442934256D002F58062934254D002F5C7
:1013AC008062934252D002F58062934250D002F593
:1013BC00A05293424ED002F5A05293424CD002F56B
:1013CC00806293424AD002F58062934248D0A2F5E3
:1013DC00C052934247D002F58062934246D002F548
:1013EC00C052934245D0564A934201D0002003E0AC
:1013FC004FF4805000E00120514A93423CD002F15E
:10140C008052934238D0E369B3F5004F63D000218A
:10141C0002F05AFD00287FD0616A4B4A32F8112045
:10142C00B0FBF2F3626803EB5203B3FBF2F3A3F1EC
:10143C0010014FF6EF7291427DD822689BB2D360B7
:10144C00002069E00220D7E70420D5E70820D3E785
:10145C001020D1E72020CFE74020CDE78020CBE73C
:10146C004FF48070C8E74FF40070C5E74FF480600C
:10147C00C2E74FF40060BFE7002102F025FD0146F2
:10148C00002849D0626A304B33F81220B0FBF2F3DB
:10149C00656805EB450098423DD8B3EB053F44D851
:1014AC00002308461946FEF7CBFE090241EA1061FB
:1014BC0000022A466B08C0184FF0000341F10001EE
:1014CC00FEF7BEFEA0F54072204B9A422FD823683F
:1014DC00D860002020E0002102F0F6FCE0B1616A47
:1014EC00194A32F81120B0FBF2F261684B0803EB99
:1014FC004203B3FBF1F3A3F110014FF6EF729142EB
:10150C0017D89AB222F00F02C3F342031343226896
:10151C00D360002000E001200123A4F86A30A4F875
:10152C00683000236367A36738BD0120F4E701200E
:10153C00F2E70120F0E70120EEE700BFF369FFCFEF
:10154C000024004400380140488B0008FFFC0F00C9
:10155C00836A13F0080F06D00268536823F4004323
:10156C00816B0B435360836A13F0010F06D0026842
:10157C00536823F40033C16A0B435360836A13F03E
:10158C00020F06D00268536823F48033016B0B43BF
:10159C005360836A13F0040F06D00268536823F477
:1015AC008023416B0B435360836A13F0100F06D0FA
:1015BC000268936823F48053C16B0B439360836A76
:1015CC0013F0200F06D00268936823F40053016CCB
:1015DC000B439360836A13F0400F0AD00268536880
:1015EC0023F48013416C0B435360436CB3F5801FA1
:1015FC000BD0836A13F0800F06D00268536823F473
:10160C000023C16C0B43536070470268536823F48A
:10161C00C003816C0B435360EBE72DE9F0410446AA
:10162C000D4616469846069F2368DB6935EA030388
:10163C000CBF4FF0010C4FF0000CB44534D1B7F196
:10164C00FF3FF1D0FFF7ACF94346C01AB8422ED891
:10165C007FB323681A6812F0040FE5D0802DE3D015
:10166C00402DE1D0DA6912F0080F11D1DA6912F4C9
:10167C00006FD9D04FF400621A622046FFF7DDFBF1
:10168C002023C4F89030002384F8843003200CE02D
:10169C0008251D622046FFF7D0FBC4F890500023AC
:1016AC0084F88430012000E00020BDE8F0810320A4
:1016BC00FBE70320F9E730B583B004460023C0F8FC
:1016CC009030FFF76DF905462268126812F0080F8A
:1016DC0010D123681B6813F0040F27D12023C4F802
:1016EC008830C4F88C300020E066206784F88400D1
:1016FC0003B030BD6FF07E430093034600224FF4DD
:10170C0000112046FFF789FF0028E2D0226852E83A
:10171C00003F23F0800342E800310029F6D120235A
:10172C00C4F8883084F884100320E1E76FF07E431E
:10173C0000932B4600224FF480012046FFF76DFFEB
:10174C000028CBD0226852E8003F23F4907342E883
:10175C0000310029F6D1226802F1080353E8003F5A
:10176C0023F00103083242E800310029F3D1202391
:10177C00C4F88C3084F884100320B9E778B310B522
:10178C000446D0F888300BB32423C4F88830226880
:10179C00136823F001031360A36AE3B92046FFF733
:1017AC00C3FD012811D02268536823F49043536081
:1017BC002268936823F02A0393602268136843F02D
:1017CC00010313602046FFF776FF10BD80F88430CC
:1017DC0004F0BAFAD8E72046FFF7BAFEDEE701209C
:1017EC007047000010B5044613468165A0F85C20D4
:1017FC000022C0F890202222C0F88C20D0F8802043
:10180C00002A31D035491166D0F880203449516610
:10181C00D0F8802033499166D0F880200021D16621
:10182C008268B2F5805F44D0D4F88000026D12F06B
:10183C00800F44D0426F002A47D01268002A44D04F
:10184C00936023682433D4F88020526F1268D360DD
:10185C00A26DD4F880305B6F1B681A61D4F88000DD
:10186C0004F089FF002830D1236943B1226852E883
:10187C00003F43F4807342E800310029F6D122681E
:10188C0002F1080353E8003F43F00103083242E839
:10189C0000310029F3D1226802F1080353E8003F1C
:1018AC0043F04003083242E800310029F3D10846E6
:1018BC0010BD0269002AB7D15B009BB2B4E7216866
:1018CC00A26D243104F003FBCCE71023C4F8903054
:1018DC002023C4F88C300120EAE700BF9B120008DB
:1018EC005D120008C70E000808B5D0F88C30202B0C
:1018FC001ED1F9B102B30023C3660368DFF83CC004
:10190C00634512D00CF1805C63450ED05B6813F418
:10191C00000F0AD0D0F800C05CE8003F43F08063B1
:10192C004CE8003EBEF1000FF4D1FFF75BFF00E086
:10193C00022008BD0120FCE70120FAE70024004446
:10194C00436E2BB90123A0F86A30A0F868307047B9
:10195C0000B503689A68C2F342629968490FDFF8D0
:10196C002CE01EF80130DB00DFF824C01CF801105D
:10197C0093FBF1F3A0F86A301EF80230DB001CF880
:10198C00022093FBF2F3A0F8683000BD688B0008CE
:10199C00608B000870477047704790F88430012BBB
:1019AC0018D0012380F884302423C0F888300368D1
:1019BC001A68196821F00101196022F00052002305
:1019CC00436601680A602022C0F8882080F88430C1
:1019DC00184670470220704738B590F88430012BB8
:1019EC001DD00446012380F884302423C0F88830AD
:1019FC0003681D681A6822F001021A600268936875
:101A0C0023F0604319439160FFF79AFF23681D6030
:101A1C002023C4F88830002084F8840038BD0220CC
:101A2C00FCE738B590F88430012B1DD00446012317
:101A3C0080F884302423C0F8883003681D681A6845
:101A4C0022F001021A600268936823F06063194364
:101A5C009160FFF775FF23681D602023C4F8883060
:101A6C00002084F8840038BD0220FCE76B4BDB6956
:101A7C0003F01803082B00F0CB80684BDB6913F0E4
:101A8C00180F0CD1654B1B6813F0200F00F0C280AF
:101A9C00624B1B68C3F3C1036148D84070475F4B6E
:101AAC00DB6903F01803102B00F0B6805B4BDB698D
:101ABC0003F01803182B01D059487047574B996AFB
:101ACC0001F00301D3F828C0CCF305209A6AC2F3C5
:101ADC0000129B6BC3F3CC0302FB03F307EE903AAB
:101AEC00F8EE677A1CF47C5FE7D001291ED003293D
:101AFC0062D007EE100AF8EE476A9FED4A6A86EE4E
:101B0C00267A464B5B6BC3F3080306EE903AF8EE6D
:101B1C00666A9FED456A67EE867A76EEA77AF7EEEF
:101B2C00006A77EEA67A27EE277A61E03B4B1B68BA
:101B3C0013F0200F23D039490A68C2F3C102384B85
:101B4C00D34007EE103AF8EE476A07EE100AB8EEEB
:101B5C00476A86EE867A4B6BC3F3080306EE903A1F
:101B6C00F8EE666A9FED306A67EE867A76EEA77AB3
:101B7C00F7EE006A77EEA67A27EE277A38E007EEC2
:101B8C00100AF8EE476A9FED296A86EE267A234BF7
:101B9C005B6BC3F3080306EE903AF8EE666A9FEDB2
:101BAC00226A67EE867A76EEA77AF7EE006A77EE0F
:101BBC00A67A27EE277A1BE007EE100AF8EE476AA2
:101BCC009FED1B6A86EE267A144B5B6BC3F30803FE
:101BDC0006EE903AF8EE666A9FED136A67EE867A27
:101BEC0076EEA77AF7EE006A77EEA67A27EE277ADA
:101BFC000A4B5B6BC3F34623013307EE903AF8EEC6
:101C0C00677AC7EE276AFCEEE67A17EE900A704701
:101C1C00084870470248704707487047000C024458
:101C2C000090D0030024744A000000390024744C46
:101C3C0020BCBE4B00093D0040787D01002800F01F
:101C4C00378170B50D4604469D4B1B6803F00F039E
:101C5C008B420BD29A4A136823F00F030B43136089
:101C6C00136803F00F038B4240F02481236813F0B8
:101C7C00100F0ED06269934B1B6A1B0A03F07003A2
:101C8C009A4206D98F490B6A23F4E04343EA0223B4
:101C9C000B62236813F0080F0ED02269894B1B6A64
:101CAC001B0903F070039A4206D986490B6A23F488
:101CBC00E06343EA02130B62236813F0040F0CD0A9
:101CCC00E268804B1B6A03F070039A4205D97D4988
:101CDC000B6A23F070031A430A62236813F0020F95
:101CEC000CD0A268774B1B6A03F00F039A4205D9FC
:101CFC0074490B6A23F00F031A430A62236813F02A
:101D0C00010F6CD06368032B0AD0022B2CD0012B53
:101D1C0031D06C4A126812F0020F07D10120C6E0D4
:101D2C00684A126812F0007F00F0C6806549CA69E3
:101D3C0022F003021343CB61FEF732FE06466368C2
:101D4C00032B1FD0022B2CD0012B39D05D4BDB6920
:101D5C0013F0180F43D0FEF723FE801B41F288339B
:101D6C009842F3D90320A2E0564A126812F4003FBD
:101D7C00DCD101209BE0534A126812F4007FD5D1CC
:101D8C00012094E04F4BDB6903F01803182B26D08D
:101D9C00FEF706FE831B41F288329342F2D90320F0
:101DAC0085E0484BDB6903F01803102B17D0FEF7C6
:101DBC00F7FD801B41F288339842F2D9032076E07C
:101DCC00404BDB6903F01803082B08D0FEF7E8FD45
:101DDC00801B41F288339842F2D9032067E02368D4
:101DEC0013F0020F0CD0A268364B1B6A03F00F03E2
:101DFC009A4205D233490B6A23F00F031A430A6245
:101E0C002F4B1B6803F00F03AB420AD92C4A136803
:101E1C0023F00F032B431360136803F00F03AB4243
:101E2C004CD1236813F0040F0CD0E268254B1B6ACD
:101E3C0003F070039A4205D222490B6A23F0700317
:101E4C001A430A62236813F0080F0ED022691D4B47
:101E5C001B6A1B0903F070039A4206D219490B6ADC
:101E6C0023F4E06343EA02130B62236813F0100FB0
:101E7C000ED06269134B1B6A1B0A03F070039A4263
:101E8C0006D210490B6A23F4E04343EA02230B62A7
:101E9C00FFF7ECFD0B4B1B6A03F00F030A4AD35CF4
:101EAC00D8400A4B18600A4B1868FEF7EFFC70BD5F
:101EBC00012070470120FAE70120F8E70120F6E73E
:101ECC0000200240000C0244388B00080000002067
:101EDC000800002008B5FFF7C9FD064B1B6A03F08C
:101EEC000F03054AD35C03F01F03D840034B186063
:101EFC0008BD00BF000C0244388B00080000002015
:101F0C00002800F02883F8B504468F4BDD6905F0F6
:101F1C0018059B6A03F003031F46036813F0100FA8
:101F2C0028D0082D1AD0182D16D0E369002B46D0D6
:101F3C00854A136843F480731360FEF731FD06463F
:101F4C00814B1B6813F4007F30D1FEF729FD801BF9
:101F5C000228F5D9032007E3022FE6D1E369002B11
:101F6C0000F0FB82784A936923F47C13216A43EADC
:101F7C0001439361236813F0010F3AD0102D34D034
:101F8C00182D30D06368B3F5803F5AD0002B6FD139
:101F9C006D4B1A6822F480321A601A6822F480128F
:101FAC001A601A6822F480221A604FE0664A93691C
:101FBC0023F47C13216A43EA01439361DAE7624A12
:101FCC00136823F480731360FEF7EAFC06465E4B3D
:101FDC001B6813F4007FCDD0FEF7E2FC801B0228B7
:101FEC00F5D90320C0E2032FCCD16368002B00F09D
:101FFC00B682236813F0020F00F0B280002D78D067
:10200C00182D74D0E368002B00F0D0804E4A136872
:10201C0023F0180321690B431360136843F0010389
:10202C001360FEF7BDFC0646474B1B6813F0020F0E
:10203C0040F0B380FEF7B4FC801B0228F4D90320D7
:10204C0092E2414A136843F4803313606368002BB7
:10205C003ED0FEF7A5FC06463B4B1B6813F4003F35
:10206C00C7D1FEF79DFC801B6428F5D903207BE2C9
:10207C00B3F5A02F10D0B3F5A81F1BD0324B1A68A4
:10208C0022F480321A601A6822F480221A601A68CC
:10209C0022F480121A60D9E72B4B1A6842F4802282
:1020AC001A601A6822F480121A601A6842F480329C
:1020BC001A60CBE7244B1A6842F480221A601A6823
:1020CC0042F480121A601A6842F480321A60BDE73A
:1020DC00FEF766FC06461C4B1B6813F4003F88D0C9
:1020EC00FEF75EFC801B6428F5D903203CE2012F2F
:1020FC0088D1E368002B00F0348235B9124B1B6891
:10210C0003F01803226993420ED1FEF749FC0646F0
:10211C000D4B1B6813F0020F1AD1FEF741FC801B0C
:10212C000228F5D903201FE207490B6823F0180396
:10213C001A430A60FFF7CEFE044B1868FEF7A6FBA5
:10214C000028E2D001200FE2000C0244080000201D
:10215C00AE4A136923F4FE03616943EA0143136138
:10216C00236813F0080F4CD0A3699BB3A74AD2F88D
:10217C00F03043F08063C2F8F030FEF711FC0646F5
:10218C00A24BD3F8F03013F0006F3AD1FEF708FCF5
:10219C00801B0228F4D90320E6E19C4A136923F43E
:1021AC00FE03616943EA01431361D9E7974A136857
:1021BC0023F001031360FEF7F3FB0646934B1B68F9
:1021CC0013F0020FCCD0FEF7EBFB801B0228F5D9E5
:1021DC000320C9E18D4AD2F8F03023F08063C2F8B5
:1021EC00F030FEF7DDFB0646884BD3F8F03013F0E9
:1021FC00006F06D0FEF7D4FB801B0228F4D9032015
:10220C00B2E1236813F0040F00F0A080804B5B6AEE
:10221C0013F0010F18D0A368012B29D0002B43D148
:10222C007A4BD3F8F02022F00102C3F8F020D3F857
:10223C00F02022F08002C3F8F020D3F8F02022F036
:10224C000402C3F8F0201AE0714A536A43F0010308
:10225C005362FEF7A5FB06466D4B5B6A13F0010F4C
:10226C00D9D1FEF79DFB801B0228F5D903207BE119
:10227C00664AD2F8F03043F00103C2F8F030A3689C
:10228C00002B51D0FEF78CFB0646604BD3F8F03098
:10229C0013F0020F5AD1FEF783FB801B41F28833F7
:1022AC009842F2D903205FE1052B15D0852B27D05E
:1022BC00564BD3F8F02022F00102C3F8F020D3F8EB
:1022CC00F02022F00402C3F8F020D3F8F02022F022
:1022DC008002C3F8F020D2E74C4BD3F8F02042F048
:1022EC000402C3F8F020D3F8F02022F08002C3F8E7
:1022FC00F020D3F8F02042F00102C3F8F020BEE742
:10230C00424BD3F8F02042F00402C3F8F020D3F88B
:10231C00F02042F08002C3F8F020D3F8F02042F015
:10232C000102C3F8F020AAE7FEF73AFB0646374B4A
:10233C00D3F8F03013F0020F08D0FEF731FB801BFE
:10234C0041F288339842F2D903200DE1236813F04F
:10235C00200F29D0636A9BB12C4A136843F4805335
:10236C001360FEF71DFB0646284B1B6813F4005F39
:10237C001AD1FEF715FB801B0228F5D90320F3E0D8
:10238C00224A136823F480531360FEF709FB0646B8
:10239C001E4B1B6813F4005F06D0FEF701FB801B7D
:1023AC000228F5D90320DFE0A36A002B00F0DB80C4
:1023BC00182D00F08A80022B13D0144A136823F0D6
:1023CC0080731360FEF7ECFA0446104B1B6813F095
:1023DC00007F71D0FEF7E4FA001B0228F5D9032028
:1023EC00C2E00A4A136823F080731360FEF7D8FA30
:1023FC000546064B1B6813F0007F0BD0FEF7D0FA96
:10240C00401B0228F5D90320AEE000BF000C0244AB
:10241C00000802445C4B9A6A22F47C5222F00302BC
:10242C00E16A206B41EA00210A439A62626B013A2D
:10243C00C2F30802A16B0139490289B20A43E16B6C
:10244C000139090401F4FE010A43216C0139090622
:10245C0001F0FE410A435A639A6A22F010029A6212
:10246C00E26CD2009A639A6A42F010029A629A6AFB
:10247C0022F00C02616C0A439A629A6A22F02002E2
:10248C00A16C0A439A629A6A42F480329A621A6880
:10249C0042F080721A60FEF783FA04463A4B1B68CE
:1024AC0013F0007F06D1FEF77BFA001B0228F5D94A
:1024BC00032059E0002057E0334A936A23F4E023C9
:1024CC0023F00303936200204EE02F4A916A506B75
:1024DC00012B4AD001F00303E26A934247D1C1F3C6
:1024EC000521236B994244D1C0F30802636B013B75
:1024FC009A4240D1C0F34622A36B013B9A423CD195
:10250C00C0F30642E36B013B9A4238D1C0F306603C
:10251C00236C013B984234D11B4B9B6BC3F3CC0314
:10252C00E26C934201D100201EE0174A936A23F01B
:10253C0010039362FEF734FA0546FEF731FAA8420F
:10254C00FBD0E26CD200104B9A639A6A42F01002F4
:10255C009A62002008E001207047012004E001206D
:10256C0002E0012000E01846F8BD0120FCE7012044
:10257C00FAE70120F8E70120F6E70120F4E7012053
:10258C00F2E70120F0E700BF000C024408B5FFF7AA
:10259C00A1FC054B1B6AC3F30213044AD35C03F082
:1025AC001F03D84008BD00BF000C0244308B00084C
:1025BC0008B5FFF78FFC054B1B6AC3F30223044AD3
:1025CC00D35C03F01F03D84008BD00BF000C0244CD
:1025DC00308B000808B5FFF77DFC054B1B6AC3F375
:1025EC000233044AD35C03F01F03D84008BD00BF7C
:1025FC00000C0244308B000838B50546344A136889
:10260C0023F080631360FEF7CBF90446304B1B6854
:10261C0013F0006F06D0FEF7C3F9001B0228F5D9A2
:10262C00032038BD2A4BDA6A22F47C5222F00302D2
:10263C002968686841EA00210A43DA62AA68013A0B
:10264C00C2F30802E9680139490289B20A432969CF
:10265C000139090401F4FE010A43696901390906CB
:10266C0001F0FE410A43DA63DA6A22F00C02A9692E
:10267C000A43DA62DA6A22F02002E9690A43DA6272
:10268C00DA6A696A0A43DA62DA6A22F01002DA62FA
:10269C001A6C6FF3CF02296A42EAC1021A64DA6A31
:1026AC0042F01002DA621A6842F080621A60FEF799
:1026BC0077F90446064B1B6813F0006F06D1FEF742
:1026CC006FF9001B0228F5D90320AAE70020A8E720
:1026DC00000C024438B50546344A136823F0805385
:1026EC001360FEF75DF90446304B1B6813F0005F76
:1026FC0006D0FEF755F9001B0228F5D9032038BD8A
:10270C002A4B1A6B22F47C5222F003022968686867
:10271C0041EA00210A431A63AA68013AC2F308028B
:10272C00E9680139490289B20A4329690139090466
:10273C0001F4FE010A4369690139090601F0FE4101
:10274C000A435A641A6B22F00C02A9690A431A63F1
:10275C001A6B22F02002E9690A431A631A6B696A40
:10276C000A431A631A6B22F010021A639A6C6FF305
:10277C00CF02296A42EAC1029A641A6B42F0100233
:10278C001A631A6842F080521A60FEF709F904467F
:10279C00064B1B6813F0005F06D1FEF701F9001B16
:1027AC000228F5D90320AAE70020A8E7000C024470
:1027BC00F8B50446036813F0807F08D0994AD2F824
:1027CC00E83023F04043816D0B43C2F8E8302368B6
:1027DC0013F0010F28D0E36D022B1DD017D80BB3CB
:1027EC00012B11D104F10800FFF706FF0546002D5F
:1027FC003AD18C4AD2F8D83023F00703E16D0B4361
:10280C00C2F8D830002611E0012635460EE0033B15
:10281C00022B26D80025ECE704F13000FFF75AFF15
:10282C000546E4E71D46E4E700263546236813F029
:10283C00020F2ED0236E102B24D01AD833B1082BB4
:10284C0014D104F10800FFF7D7FE054605BB754A05
:10285C00D2F8D83023F03803216E0B43C2F8D830AD
:10286C0017E001263546E1E72E46DFE7012635461F
:10287C000FE0202BEAD0282BE8D0182BE6D001262D
:10288C00354606E004F13000FFF724FF0546DDE78E
:10289C002E46236813F0040F2BD0636E802B21D0AF
:1028AC0015D833B1402B0FD104F10800FFF7A4FE6B
:1028BC000546EDB95B4AD2F8D83023F4E073616E6B
:1028CC000B43C2F8D83014E00126354611E0B3F5BD
:1028DC00807FEED0B3F5A07FEBD0C02BE9D00126E2
:1028EC00354606E004F13000FFF7F4FE0546E0E75C
:1028FC002E46236813F0080F2ED0A36EB3F5806F0D
:10290C0023D016D83BB1B3F5007F0FD104F10800EA
:10291C00FFF772FE0546F5B9424AD2F8D83023F4D7
:10292C006063A16E0B43C2F8D83015E00126354622
:10293C0012E0B3F5006FEED0B3F5206FEBD0B3F52A
:10294C00C06FE8D00126354606E004F13000FFF7F1
:10295C00C1FE0546DFE72E46236813F0100F2ED07C
:10296C00E36EB3F5005F23D016D83BB1B3F5805FAF
:10297C000FD104F10800FFF73FFE0546F5B9294ACF
:10298C00D2F8D83023F4E043E16E0B43C2F8D830D0
:10299C0015E00126354612E0B3F5804FEED0B3F5C5
:1029AC00A04FEBD0B3F5405FE8D00126354606E0EA
:1029BC0004F13000FFF78EFE0546DFE72E46236854
:1029CC0013F0200F31D0236FB3F5803F23D016D8EE
:1029DC003BB1B3F5004F0FD104F10800FFF70CFE2B
:1029EC0005460DBB0F4AD2F8D83023F46033216F63
:1029FC000B43C2F8D83018E00126354615E0B3F584
:102A0C00003FEED0B3F5203FEBD0B3F5C03FE8D09C
:102A1C000126354609E004F13000FFF75BFE054660
:102A2C00DFE700BF000C02442E46236813F0400F72
:102A3C002ED0636FB3F5002F23D016D83BB1B3F56E
:102A4C00802F0FD104F10800FFF7D6FD0546F5B92C
:102A5C00A24AD2F8D83023F4E013616F0B43C2F8CA
:102A6C00D83015E00126354612E0B3F5801FEED0C4
:102A7C00B3F5A01FEBD0B3F5402FE8D001263546B7
:102A8C0006E004F13000FFF725FE0546DFE72E4691
:102A9C00236813F0800F2ED0A36FB3F5800F23D0D3
:102AAC0016D83BB1B3F5001F0FD104F10800FFF7A6
:102ABC00A3FD0546F5B9894AD2F8D83023F4600352
:102ACC00A16F0B43C2F8D83015E00126354612E051
:102ADC00B3F5000FEED0B3F5200FEBD0B3F5C00F6C
:102AEC00E8D00126354606E004F13000FFF7F2FD90
:102AFC000546DFE72E46236813F4807F2ED0E36F64
:102B0C00B3F1007F23D016D83BB1B3F1807F0FD146
:102B1C0004F10800FFF770FD0546F5B96F4AD2F8CD
:102B2C00D83023F0E063E16F0B43C2F8D83015E0E6
:102B3C000126354612E0B3F1806FEED0B3F1A06FF1
:102B4C00EBD0B3F1407FE8D00126354606E004F126
:102B5C003000FFF7BFFD0546DFE72E46236813F470
:102B6C00007F30D0D4F88030B3F1805F24D017D8F8
:102B7C003BB1B3F1006F10D104F10800FFF73CFD3D
:102B8C000546FDB9554AD2F8D83023F06053D4F835
:102B9C0080100B43C2F8D83015E00126354612E000
:102BAC00B3F1005FEDD0B3F1205FEAD0B3F1C05FB9
:102BBC00E7D00126354606E004F13000FFF78AFD28
:102BCC000546DEE72E46236813F4806F28D0D4F830
:102BDC008430022B1DD016D833B1012B10D104F147
:102BEC000800FFF709FD0546CDB93C4AD2F8DC30A8
:102BFC0023F00703D4F884100B43C2F8DC300FE049
:102C0C00012635460CE0033B022BEDD90126354657
:102C1C0006E004F13000FFF75DFD0546E4E72E46C3
:102C2C00236813F4006F2BD0D4F88830202B20D0DD
:102C3C0016D833B1102B10D104F10800FFF7DCFCCF
:102C4C000546E5B9254AD2F8DC3023F07003D4F8F8
:102C5C0088100B43C2F8DC3012E0012635460FE039
:102C6C00402BEED0502BECD0302BEAD00126354641
:102C7C0006E004F13000FFF72DFD0546E1E72E4696
:102C8C00236813F4805F32D0D4F88C30B3F1007F1A
:102C9C0026D017D83BB1B3F1807F10D104F10800D6
:102CAC00FFF7AAFC05460DBB0C4AD2F8E03023F026
:102CBC00E063D4F88C100B43C2F8E03017E0012627
:102CCC00354614E0B3F1806FEDD0B3F1A06FEAD0CC
:102CDC00B3F1407FE7D00126354608E0000C0244F2
:102CEC0004F13000FFF7F6FC0546DCE72E462368BE
:102CFC0013F4005F22D0D4F89030B3F5803F0DD0A0
:102D0C0008D9B3F5003F0ED0B3F5403F0BD00126E8
:102D1C00354613E03BB1012635460FE004F1300097
:102D2C00FFF7D8FC0546E5B94B4AD2F8E43023F45A
:102D3C004033D4F890100B43C2F8E430236813F4FA
:102D4C00804F24D0D4F89430B3F5802F0FD00AD90B
:102D5C00B3F5002F10D0B3F5402F0DD0012635461A
:102D6C0015E02E46EAE73BB1012635460FE004F1AB
:102D7C003000FFF7AFFC0546E5B9374AD2F8E4302E
:102D8C0023F44023D4F894100B43C2F8E4302368A6
:102D9C0013F4004F24D0D4F89830B3F5801F0FD023
:102DAC000AD9B3F5001F10D0B3F5401F0DD0012682
:102DBC00354615E02E46EAE73BB1012635460FE0D5
:102DCC0004F13000FFF786FC0546E5B9224AD2F83B
:102DDC00E43023F44013D4F898100B43C2F8E430D9
:102DEC00636813F4806F24D0D4F89C30B3F5800F53
:102DFC000FD00AD9B3F5000F10D0B3F5400F0DD09A
:102E0C000126354615E02E46EAE73BB1012635464C
:102E1C000FE004F13000FFF75DFC0546CDB90E4A1A
:102E2C00D2F8E43023F44003D4F89C100B43C2F8DE
:102E3C00E430236813F4803F22D0D4F8A030B3F1EF
:102E4C00807F0BD0B3F1007F0DD063B101263546E6
:102E5C0016E02E46EDE700BF000C024404F13000F2
:102E6C00FFF738FC0546002D40F00481B84AD2F833
:102E7C00E43023F04073D4F8A0100B43C2F8E430D4
:102E8C00636813F4006F09D0B14BDA6922F4004285
:102E9C00DA61DA69D4F804110A43DA61236813F4AD
:102EAC00003F1ED0D4F8A430B3F5007F00F0F680BC
:102EBC0000F2E58043B1B3F5807F40F0DD8004F192
:102ECC000800FFF799FB0546002D40F0ED80A04A65
:102EDC00D2F8DC3023F4E063D4F8A4100B43C2F82E
:102EEC00DC30236813F4802F1ED0D4F8A830B3F54F
:102EFC00005F00F0ED8000F2DC8043B1B3F5805F41
:102F0C0040F0D48004F10800FFF776FB0546002D55
:102F1C0040F0E4808E4AD2F8DC3023F4E043D4F85D
:102F2C00A8100B43C2F8DC30636813F0200F1ED0DE
:102F3C00D4F8AC30B3F5003F00F0E48000F2D3805D
:102F4C0043B1B3F5803F40F0CB8004F10800FFF7AC
:102F5C0053FB0546002D40F0DB807D4AD2F8DC3077
:102F6C0023F4E023D4F8AC100B43C2F8DC306368D4
:102F7C0013F0400F1ED0D4F8B030B3F5001F00F0A2
:102F8C00DB8000F2CA8043B1B3F5801F40F0C280F1
:102F9C0004F10800FFF730FB0546002D40F0D2800D
:102FAC006B4AD2F8DC3023F4E003D4F8B0100B43B6
:102FBC00C2F8DC30636813F0800F1ED0D4F8B43044
:102FCC00B3F1007F00F0D58000F2C48043B1B3F1BF
:102FDC00807F40F0B98004F10800FFF70DFB054637
:102FEC00002D40F0CC805A4AD2F8DC3023F0E0635C
:102FFC00D4F8B4100B43C2F8DC30636813F4807F50
:10300C001ED0D4F8B830B3F1005F00F0CC8000F2E1
:10301C00BB8043B1B3F1805F40F0B38004F1080092
:10302C00FFF7EAFA0546002D40F0C380484AD2F873
:10303C00DC3023F0E043D4F8B8100B43C2F8DC309A
:10304C00236813F4002F00F0DA80D4F8C030B3F505
:10305C00003F00F0CD8000F2B180002B00F0B78073
:10306C00B3F5803F40F0A78004F10800FFF7C4FAE5
:10307C000546B1E02E4603E70126354631E7B3F5A8
:10308C00806F3FF421AFB3F5A06F3FF41DAFB3F5E4
:10309C00407F3FF419AF0126354622E704F130009A
:1030AC00FFF718FB05460FE72E461AE701263546B3
:1030BC003AE7B3F5804F3FF42AAFB3F5A04F3FF496
:1030CC0026AFB3F5405F3FF422AF012635462BE720
:1030DC0004F13000FFF7FEFA054618E72E4623E709
:1030EC000126354643E7B3F5802F3FF433AFB3F5F4
:1030FC00A02F3FF42FAFB3F5403F3FF42BAF012689
:10310C00354634E704F13000FFF7E4FA054621E7D1
:10311C002E462CE7012635464CE7B3F5800F3FF4DD
:10312C003CAFB3F5A00F3FF438AFB3F5401F3FF4FD
:10313C0034AF012635463DE704F13000FFF7CAFAFB
:10314C0005462AE72E4635E70126354655E700BFEA
:10315C00000C0244B3F1806F3FF442AFB3F1A06FA7
:10316C003FF43EAFB3F1407F3FF43AAF0126354612
:10317C0043E704F13000FFF7ADFA054630E72E4681
:10318C003BE7012635465BE7B3F1804F3FF44BAF8D
:10319C00B3F1A04F3FF447AFB3F1405F3FF443AFFF
:1031AC00012635464CE704F13000FFF793FA05464B
:1031BC0039E72E4644E70126354620E0B3F5403F7B
:1031CC000AD0B3F5802F07D00126354617E0A54A63
:1031DC00936A43F40033936285B9A24AD2F8E8307B
:1031EC0023F4E023D4F8C0100B43C2F8E83006E017
:1031FC0004F13000FFF76EFA0546EDE72E46236822
:10320C0013F4801F2BD0D4F8C430B3F5801F35D005
:10321C000CD8A3B1B3F5002F05D104F10800FFF7CA
:10322C00EBF9054610E00126354618E0B3F5C01F52
:10323C000AD0B3F5001F07D0012635460FE0894AA6
:10324C00936A43F400339362F5B9864AD2F8E830B6
:10325C0023F46013D4F8C4100B43C2F8E83023688D
:10326C0013F4001F27D0D4F8D430022B13D00DD96F
:10327C00033B022B14D9012635461CE004F1300027
:10328C00FFF728FA0546DFE72E46E8E7012B07D9BA
:10329C00012635460FE004F10800FFF7ADF90546AD
:1032AC006DBB704AD2F8E83023F00703D4F8D41081
:1032BC000B43C2F8E830636813F4007F06D0D4F8EF
:1032CC00D830F3B1082B1CD001263546236813F0F7
:1032DC00007F22D1236813F0806F00F0A980D4F80E
:1032EC00C830102B00F0948040F28E80202B00F020
:1032FC009480302B00F091800126354698E02E46C4
:10330C00D9E745B95749D1F8E82022F00802134310
:10331C00C1F8E830DAE72E46D8E7534A536A43F04F
:10332C0001035362FDF73CFB07464F4B5B6A13F0FE
:10333C00010F05D1FDF734FBC01B0228F5D903257D
:10334C00002D5DD1474BD3F8F03013F440731BD0F4
:10335C00D4F8F82002F440729A4215D0414BD3F8BD
:10336C00F01021F44070D3F8F02042F48032C3F80E
:10337C00F020D3F8F02022F48032C3F8F020C3F808
:10338C00F00011F0010F1ED1002D3BD1D4F8F83014
:10339C0003F44072B2F5407F27D0324AD36923F44C
:1033AC007C53D3612F4BD3F8F02022F44072C3F836
:1033BC00F020D3F8F020D4F8F810C1F30B010A4335
:1033CC00C3F8F02086E7FDF7EBFA0746254BD3F858
:1033DC00F03013F0020FD7D1FDF7E2FAC01B41F227
:1033EC0088339842F2D90325CEE71E49CA6922F4E4
:1033FC007C52C3F3171323F030031343CB61D1E793
:10340C002E4667E72E4665E73BB1012635460FE0B1
:10341C00144A936A43F40033936205BB114AD2F801
:10342C00E83023F03003D4F8C8100B43C2F8E8306E
:10343C00236813F4800F06D0D4F8CC30B3B1402BF2
:10344C0025D001263546236813F4000F3FD0D4F85D
:10345C00D03023B3802B33D00126354637E02E46AF
:10346C00E6E700BF000C0244000802445A4A936A83
:10347C0043F40033936285B9574AD2F8E43023F011
:10348C004003D4F8CC100B43C2F8E430DBE704F172
:10349C000800FFF7B1F80546EDE72E46D3E74E4A94
:1034AC00936A43F40033936285B94B4AD2F8E43003
:1034BC0023F08003D4F8D0100B43C2F8E43006E0BC
:1034CC0004F10800FFF798F80546EDE72E4623684F
:1034DC0013F0006F2ED0D4F8E030022B23D00BD891
:1034EC0083B1012B05D104F10800FFF785F80546DF
:1034FC000DE0012635461DE0033B012B07D90126C3
:10350C00354617E0344A936A43F40033936285B925
:10351C00314AD2F8E03023F00703D4F8E0100B4323
:10352C00C2F8E03006E004F13000FFF7D3F80546AE
:10353C00EDE72E46236813F0805F27D0D4F8E430F3
:10354C00102B36D00BD88BB1082B05D104F1080009
:10355C00FFF752F805460EE00126354616E0182B0B
:10356C0009D0202B07D0012635460FE01A4A936A62
:10357C0043F40033936215BB174AD2F8E03023F0C2
:10358C003803D4F8E4100B43C2F8E030236813F08E
:10359C00005F35D0D4F8E830802B00F0CC8013D805
:1035AC00E3B1402B0DD104F10800FFF725F80546D7
:1035BC0019E004F13000FFF78DF80546DBE72E46E5
:1035CC00E4E7012635461BE0C02B0CD0B3F5807F19
:1035DC0009D00126354613E0000C0244B04A936A28
:1035EC0043F400339362002D40F0AB80AC4AD2F828
:1035FC00E03023F4E073D4F8E8100B43C2F8E03069
:10360C00236813F0804F1ED0D4F8EC30B3F5806FE4
:10361C0000F0AB8000F29A8043B1B3F5007F40F02C
:10362C00928004F10800FEF7E7FF0546002D40F0FC
:10363C00A2809B4AD2F8E03023F46063D4F8EC10FB
:10364C000B43C2F8E0302368002B1EDAD4F8F030BC
:10365C00B3F5005F00F0A38000F2928043B1B3F5A4
:10366C00805F40F08A8004F10800FEF7C5FF054634
:10367C00002D40F09A808A4AD2F8E03023F4E043DF
:10368C00D4F8F0100B43C2F8E030636813F0010F6C
:10369C001ED0D4F8F430B3F5803F00F09A8000F2DD
:1036AC00898043B1B3F5004F40F0818004F10800EC
:1036BC00FEF7A2FF0546002D40F09180784AD2F823
:1036CC00E03023F46033D4F8F4100B43C2F8E0304C
:1036DC00636813F0020F1BD0D4F8DC30022B00F01F
:1036EC00888000F2818033B1012B7AD16C4A936AC5
:1036FC0043F400339362002D40F08180684AD2F885
:10370C00E43023F00303D4F8DC100B43C2F8E430AC
:10371C00636813F0040F00F08580D4F8BC30B3F567
:10372C00807F6ED0B3F5007F00F0A880002B6DD0A9
:10373C000126354676E004F13000FEF7CBFF054656
:10374C0051E72E465CE7012635467CE7B3F5006F62
:10375C003FF46CAFB3F5206F3FF468AFB3F5C06FB7
:10376C003FF464AF012635466DE704F13000FEF7F7
:10377C00B1FF05465AE72E4665E70126354684E734
:10378C00B3F5804F3FF474AFB3F5A04F3FF470AF77
:10379C00B3F5405F3FF46CAF0126354675E704F195
:1037AC003000FEF797FF054662E72E466DE70126CF
:1037BC0035468DE7B3F5003F3FF47DAFB3F5203FC1
:1037CC003FF479AFB3F5C03F3FF475AF01263546F2
:1037DC007EE704F13000FEF77DFF05466BE72E46D1
:1037EC0076E70126354693E7032B84D00126354630
:1037FC008EE704F10800FEF7FFFE05467BE72E4638
:10380C0086E7274A936A43F400339362002D3BD139
:10381C00234AD2F8E83023F44073D4F8BC100B439D
:10382C00C2F8E830636813F0100F17D0D4F80031E9
:10383C00202B2BD0302B06D0102B2DD1184A936A6D
:10384C0043F4003393624DBB154AD2F8E43023F0B5
:10385C003003D4F800110B43C2F8E430636813F062
:10386C00080F09D00E4AD2F8E83023F0C003D4F880
:10387C00FC100B43C2F8E8303046F8BD04F10800E8
:10388C00FEF7BAFE0546C1E72E46CBE704F1300041
:10389C00FEF720FF0546D6E70126DFE72E46DDE7DB
:1038AC00000C024410B57D494A6BC2F308028B6AC6
:1038BC0003F0030C8C6AC4F3052307EE103A8B6AF1
:1038CC00C3F3001E8B6BC3F3CC030EFB03F314F496
:1038DC007C5F00F0DE8007EE903AF8EE677ABCF180
:1038EC00020F3FD0BCF1030F53D0BCF1010F67D1D5
:1038FC000968C1F3C1016A4BCB4006EE903AB8EEB1
:10390C00666AB8EE477AC6EE076A07EE102AB8EE7A
:10391C00477A9FED646A67EE867A77EE277AB7EE80
:10392C00007A77EE877A66EEA77A5C4B1B6813F009
:10393C00007F67D0594B9B6A13F4803F5FD0574B85
:10394C005B6BC3F3462307EE103AB8EE477AF7EEFB
:10395C00006A37EE267AC7EE876AFCEEE66AC0ED9F
:10396C00006A51E0B8EE477A9FED4F6AC6EE076ADF
:10397C0007EE102AB8EE477A9FED4A6A67EE867A10
:10398C0077EE277AB7EE007A77EE877A66EEA77A2B
:10399C00CBE7B8EE477A9FED456AC6EE076A07EEAD
:1039AC00102AB8EE477A9FED3F6A67EE867A77EE7B
:1039BC00277AB7EE007A77EE877A66EEA77AB4E7C5
:1039CC00364B1968C1F3C101354BCB4006EE903A2A
:1039DC00B8EE666AB8EE477AC6EE076A07EE102AAA
:1039EC00B8EE477A9FED2F6A67EE867A77EE277AE4
:1039FC00B7EE007A77EE877A66EEA77A95E7002322
:103A0C00036001E000230360244B1B6813F0007F6C
:103A1C001AD0224B9B6A13F4003F12D01F4B5B6BE6
:103A2C00C3F3064307EE103AB8EE477AF7EE006A96
:103A3C0037EE267AC7EE876AFCEEE66AC0ED016ABD
:103A4C0004E00023436001E000234360134B1B6838
:103A5C0013F0007F1AD0114B9B6A13F4802F12D0F5
:103A6C000E4B5B6BC3F3066307EE103AB8EE477A66
:103A7C00F7EE006A37EE267AC7EE876AFCEEE66A46
:103A8C00C0ED026A09E00023836006E00023836036
:103A9C0003E0002303604360836010BD000C02440C
:103AAC000090D003000000390024744A20BCBE4BA7
:103ABC0010B57D49CA6BC2F30802CB6A03F0030C44
:103ACC00CC6AC4F3052307EE103ACB6AC3F3001E8D
:103ADC000B6CC3F3CC030EFB03F314F47C5F00F00C
:103AEC00DE8007EE903AF8EE677ABCF1020F3FD019
:103AFC00BCF1030F53D0BCF1010F67D10968C1F3BE
:103B0C00C1016A4BCB4006EE903AB8EE666AB8EE4D
:103B1C00477AC6EE076A07EE102AB8EE477A9FED91
:103B2C00646A67EE867A77EE277AB7EE007A77EEDC
:103B3C00877A66EEA77A5C4B1B6813F0006F67D030
:103B4C00594BDB6A13F4803F5FD0574BDB6BC3F3ED
:103B5C00462307EE103AB8EE477AF7EE006A37EED6
:103B6C00267AC7EE876AFCEEE66AC0ED006A51E081
:103B7C00B8EE477A9FED4F6AC6EE076A07EE102A39
:103B8C00B8EE477A9FED4A6A67EE867A77EE277A27
:103B9C00B7EE007A77EE877A66EEA77ACBE7B8EEC7
:103BAC00477A9FED456AC6EE076A07EE102AB8EE13
:103BBC00477A9FED3F6A67EE867A77EE277AB7EE03
:103BCC00007A77EE877A66EEA77AB4E7364B1968F7
:103BDC00C1F3C101354BCB4006EE903AB8EE666AA4
:103BEC00B8EE477AC6EE076A07EE102AB8EE477AA7
:103BFC009FED2F6A67EE867A77EE277AB7EE007A1A
:103C0C0077EE877A66EEA77A95E70023036001E0EA
:103C1C0000230360244B1B6813F0006F1AD0224B57
:103C2C00DB6A13F4003F12D01F4BDB6BC3F306436C
:103C3C0007EE103AB8EE477AF7EE006A37EE267ABE
:103C4C00C7EE876AFCEEE66AC0ED016A04E0002369
:103C5C00436001E000234360134B1B6813F0006FBB
:103C6C001AD0114BDB6A13F4802F12D00E4BDB6B86
:103C7C00C3F3066307EE103AB8EE477AF7EE006A24
:103C8C0037EE267AC7EE876AFCEEE66AC0ED026A6A
:103C9C0009E00023836006E00023836003E0002337
:103CAC0003604360836010BD000C02440090D0039D
:103CBC00000000390024744A20BCBE4B10B57D496D
:103CCC004A6CC2F308020B6B03F0030C0C6BC4F3CD
:103CDC00052307EE103A0B6BC3F3001E8B6CC3F37A
:103CEC00CC030EFB03F314F47C5F00F0DE8007EED4
:103CFC00903AF8EE677ABCF1020F3FD0BCF1030F9B
:103D0C0053D0BCF1010F67D10968C1F3C1016A4BF3
:103D1C00CB4006EE903AB8EE666AB8EE477AC6EE3D
:103D2C00076A07EE102AB8EE477A9FED646A67EED1
:103D3C00867A77EE277AB7EE007A77EE877A66EE98
:103D4C00A77A5C4B1B6813F0005F67D0594B1B6B59
:103D5C0013F4803F5FD0574B5B6CC3F3462307EEE5
:103D6C00103AB8EE477AF7EE006A37EE267AC7EECD
:103D7C00876AFCEEE66AC0ED006A51E0B8EE477A5D
:103D8C009FED4F6AC6EE076A07EE102AB8EE477A27
:103D9C009FED4A6A67EE867A77EE277AB7EE007A5D
:103DAC0077EE877A66EEA77ACBE7B8EE477A9FED87
:103DBC00456AC6EE076A07EE102AB8EE477A9FED01
:103DCC003F6A67EE867A77EE277AB7EE007A77EE5F
:103DDC00877A66EEA77AB4E7364B1968C1F3C1014E
:103DEC00354BCB4006EE903AB8EE666AB8EE477AA1
:103DFC00C6EE076A07EE102AB8EE477A9FED2F6AD7
:103E0C0067EE867A77EE277AB7EE007A77EE877AC6
:103E1C0066EEA77A95E70023036001E000230360B8
:103E2C00244B1B6813F0005F1AD0224B1B6B13F44E
:103E3C00003F12D01F4B5B6CC3F3064307EE103AE6
:103E4C00B8EE477AF7EE006A37EE267AC7EE876A45
:103E5C00FCEEE66AC0ED016A04E00023436001E079
:103E6C0000234360134B1B6813F0005F1AD0114BF7
:103E7C001B6B13F4802F12D00E4B5B6CC3F30663D9
:103E8C0007EE103AB8EE477AF7EE006A37EE267A6C
:103E9C00C7EE876AFCEEE66AC0ED026A09E0002311
:103EAC00836006E00023836003E00023036043602B
:103EBC00836010BD000C02440090D0030000003958
:103ECC000024744A20BCBE4B00F17E430B4360D0EF
:103EDC0000B58BB0A0F580130B4300F02784B04BDA
:103EEC00984271F1000380F02B82A0F580630B43A4
:103EFC0000F0AE8640F20143984271F1000380F06D
:103F0C005581A0F120030B4300F09485212871F119
:103F1C00000380F0B680031F0B4300F0D784052804
:103F2C0071F1000369D2431E0B4300F06F84023819
:103F3C0008435FD19B4BD3F8D83013F0380300F013
:103F4C00AD84984A126812F0006F02D0082B00F072
:103F5C00A984102B00F0AC84924A126812F0020F64
:103F6C0002D0182B00F0AA848E4A126812F4007F3B
:103F7C0002D0202B01F01A848A4AD2F8F02012F0D9
:103F8C00020F01F01584282B01F01484002001F09D
:103F9C000ABA844AD2F8F03003F44073D2F8F02015
:103FAC0012F0020F03D0B3F5807F01F0E0837D4A5D
:103FBC00D2F8F02012F0006F03D0B3F5007F01F0BF
:103FCC00D983784A106810F4003001F0D084B3F52E
:103FDC00407F01D000207047D36903F47C53B3F5C4
:103FEC00007FC1F0CA83D369C3F305236E48B0FBCD
:103FFC00F3F07047002001F0D6B9A0F108030B4391
:10400C0000F0AE841038084338D1664BD3F8D83062
:10401C0013F4E04300F0F184624A126812F0006F6E
:10402C0003D0B3F5805F00F0EC845E4A126812F0A6
:10403C00005F03D0B3F5005F00F0E984594A1268C1
:10404C0012F0020F03D0B3F5405F00F0E684554A3E
:10405C00126812F4007F03D0B3F5804F01F0BB83DC
:10406C00504AD2F8F02012F0020F01F0B683B3F5EB
:10407C00A04F01F0B483002001F095B9002001F0AD
:10408C0092B9A0F580730B4300F0868540F20113C2
:10409C00984271F1000343D2A0F140030B4300F0AE
:1040AC0016858038084338D13E4BD3F8D83013F4FA
:1040BC00600300F059853B4A126812F0006F03D080
:1040CC00B3F5001F00F05485364A126812F0005FF9
:1040DC0003D0B3F5800F00F05185324A126812F00C
:1040EC00020F03D0B3F5C00F00F04E852D4A1268B5
:1040FC0012F4007F03D0B3F5000F01F08183294A3D
:10410C00D2F8F02012F0020F01F07C83B3F5200FEF
:10411C0001F07A83002001F046B9002001F043B988
:10412C00A0F50070084338D11E4BD3F8D83013F0EB
:10413C00605300F079851B4A126812F0006F03D0AF
:10414C00B3F1006F00F07385164A126812F0005F2D
:10415C0003D0B3F1805F00F06F85124A126812F041
:10416C00020F03D0B3F1C05F00F06B850D4A1268EB
:10417C0012F4007F03D0B3F1005F01F04F83094AC2
:10418C00D2F8F02012F0020F01F04A83B3F1205F55
:10419C0001F04883002001F006B9002001F003B9BA
:1041AC0001001000000C024440787D01A0F5004392
:1041BC000B4300F0758648F20103984271F100033D
:1041CC002ED3A0F580230B4300F01A87B24B9842F4
:1041DC0071F1000380F09580A0F580330B4300F063
:1041EC009A86A0F50030084340F08880AB4BD3F89A
:1041FC00DC3003F4E063B3F5407F00F0D88600F2C6
:10420C00B386B3F5807F00F0C886B3F5007F00F06D
:10421C00C986002B40F0A186FEF7DCF901F0C3B88B
:10422C00A0F500530B4300F0008642F201039842C4
:10423C0071F100033AD2A0F500630B4300F04F85F7
:10424C00A0F5805008432ED1944BD3F8E03013F0F6
:10425C00E06300F08785B3F1807F00F08685B3F1D1
:10426C00007F00F087858D4A126812F0020F03D090
:10427C00B3F1407F00F08385884A126812F4007F06
:10428C0003D0B3F1806F01F0DE82844AD2F8F020C3
:10429C0012F0020F01F0D982B3F1A06F01F0D782B6
:1042AC00002001F080B8002001F07DB8A0F580401E
:1042BC00084320D1794BD3F8E43013F4402300F0B9
:1042CC00E085B3F5802F00F0DF85744A126812F098
:1042DC00020F03D0B3F5002F00F0DB856F4A126894
:1042EC0012F4007F01F0C882B3F5402F01F0C682B2
:1042FC00002001F058B8002001F055B8002001F062
:10430C0052B8A0F50020084317D1644BD3F8E8301D
:10431C0003F4E023B3F5003F00F0EC8100F2C88118
:10432C00002B00F0E181B3F5803F40F0BE8104A882
:10433C00FFF7BEFB049801F036B8002001F033B84B
:10434C00022908BF002801F07981002383424FF035
:10435C0002038B41C0F0E78000F170430B4301F086
:10436C0067804F4B984271F1000344D2A0F50003D3
:10437C000B4300F039824B4B984271F1000318D279
:10438C00A0F500130B4300F00185A0F58000084355
:10439C000CD1424BD3F8E43013F0400F40F01E82A6
:1043AC0007A8FFF77FFA089800F0FDBF002000F087
:1043BC00FABF00F17C430B4301F0848100F178409B
:1043CC00084315D1354BD3F8E03003F00703022B2B
:1043DC0001F0148000F2F587002B01F00A80012B0C
:1043EC0040F0ED8704A8FFF763FB049800F0DBBFF7
:1043FC00002000F0D8BF002908BFB0F1004F01F039
:10440C00C2804FF0004383424FF000038B414BD3EB
:10441C0000F160430B4301F0588000F14040084329
:10442C0037D11E4BD3F8E03013F4606301F0978062
:10443C001A4A126812F0006F03D0B3F5007F01F036
:10444C009180164A126812F0005F03D0B3F5806FAA
:10445C0001F08D80114A126812F0020F03D0B3F5EF
:10446C00C06F01F089800D4A126812F4007F03D0EE
:10447C00B3F5006F01F04A82084A126812F4003F4B
:10448C0001F04682B3F5206F01F04482002000F069
:10449C008ABF002000F087BF01000400000C02441A
:1044AC000100001001008000012908BF002837D14D
:1044BC00B74BD3F8E03013F4603301F0AB80B44A5F
:1044CC00126812F0006F03D0B3F5004F01F0A58015
:1044DC00AF4A126812F0005F03D0B3F5803F01F0D1
:1044EC00A180AB4A126812F0020F03D0B3F5C03FA3
:1044FC0001F09D80A64A126812F4007F03D0B3F538
:10450C00003F01F00F82A24A126812F4003F01F042
:10451C000B82B3F5203F01F00982002000F043BF6D
:10452C00002000F040BF402908BF002800F017868B
:10453C00002383424FF040038B4130D2B1F5007F12
:10454C0008BF002800F05884002383424FF4007306
:10455C008B41C0F08180802908BF002800F065865F
:10456C00B1F5807F08BF002873D1894BD3F8DC30BC
:10457C0003F0E043B3F1405F00F0DB8600F2B68657
:10458C00B3F1805F00F0CB86B3F1005F00F0CC8616
:10459C00002B40F0A986FEF71DF800F004BF10298F
:1045AC0008BF002801F0C080002383424FF01003A5
:1045BC008B412DD3042908BF002800F0E18608297F
:1045CC0008BF002821D1724AD2F8E83003F0C003AA
:1045DC00D2F8F02012F0020F02D0002B01F0AE81C5
:1045EC006B4AD2F8F02012F0006F02D0402B01F091
:1045FC00A881674A126812F4007F01F0A581802B14
:10460C0001F0A481002000F0CEBE002000F0CBBE53
:10461C00202908BF002819D15D4BD3F8DC3003F4F6
:10462C00E023B3F5403F00F0718500F24C85B3F503
:10463C00803F00F06185B3F5003F00F06285002BF0
:10464C0040F03F85FDF7C6FF00F0ADBE002000F046
:10465C00AABE002000F0A7BEB1F5806F08BF0028ED
:10466C0020D14B4BD3F8E43013F4400300F04484D6
:10467C00B3F5800F00F04384454A126812F0020F24
:10468C0003D0B3F5000F00F03F84414A126812F4D6
:10469C00007F01F0F980B3F5400F01F0F7800020A6
:1046AC0000F081BE002000F07EBE002000F07BBE3A
:1046BC00B3F5403F01F06380B3F5802F11D1344A3C
:1046CC00D2F8E83003F04043126812F0020F17D012
:1046DC00B3B92F4B1B68C3F3C1032E48D84000F06D
:1046EC0062BE002000F05FBE07A8FFF7DBF8089859
:1046FC0000F059BE01A8FFF7E1FA019800F053BE93
:10470C00234A126812F4007F03D0B3F1804F01F0FA
:10471C0038801F4A126812F4003F01F03480B3F164
:10472C00004F01F03280002000F03DBE184BD3F852
:10473C00E83003F46013B3F5801F33D00CD85BB3AF
:10474C00B3F5002F05D104A8FFF7B2F9049800F0D7
:10475C002ABE002000F027BEB3F5C01F01F0178061
:10476C00B3F5001F11D10A4AD2F8E83003F04043E8
:10477C00126812F0020F1BD0D3B9054B1B68C3F3A0
:10478C00C1030448D84000F00EBE002000F00BBE60
:10479C00000C02440090D00307A8FFF783F8089898
:1047AC0000F001BE01A8FFF789FA019800F0FBBDEB
:1047BC009E4A126812F4007F03D0B3F1804F00F0D0
:1047CC00E8879A4A126812F4003F00F0E487B3F1CC
:1047DC00004F00F0E287002000F0E5BD04A8FFF7D1
:1047EC0067F9069800F0DFBD904BD3F8E43013F076
:1047FC00800F05D107A8FFF755F8089800F0D3BD36
:10480C0004A8FFF755F9069800F0CDBD874BD3F8F7
:10481C00D83013F0070329D0844A126812F0006FC5
:10482C0001D0012B26D0814A126812F0005F01D012
:10483C00022B25D07D4A126812F0020F01D0032BF7
:10484C0024D07A4A126812F4007F02D0042B00F0B4
:10485C00A687764AD2F8F02012F0020F00F0A1875A
:10486C00052B00F0A087002000F09DBDFDF7A0FEF9
:10487C0000F099BD04A8FFF71BF9059800F093BD53
:10488C0001A8FFF71BFA029800F08DBD674B1B685F
:10489C00C3F3C1036648D84000F085BDFDF776FE32
:1048AC0000F081BD04A8FFF703F9059800F07BBD6B
:1048BC0001A8FFF703FA029800F075BD5B4B1B686B
:1048CC00C3F3C1035A48D84000F06DBD574BD3F821
:1048DC00D83013F4E0732BD0544A126812F0006FE6
:1048EC0001D0402B28D0514A126812F0005F01D041
:1048FC00802B27D04D4A126812F0020F01D0C02B2A
:10490C0026D04A4A126812F4007F03D0B3F5807F98
:10491C0000F05387454AD2F8F02012F0020F00F055
:10492C004E87B3F5A07F00F04C87002000F03BBD14
:10493C00FDF72CFE00F037BD04A8FFF7B9F8059879
:10494C0000F031BD01A8FFF7B9F9029800F02BBDBA
:10495C00364B1B68C3F3C1033548D84000F023BD68
:10496C00324BD3F8D83013F460632ED02F4A126830
:10497C0012F0006F02D0B3F5007F2AD02B4A1268D8
:10498C0012F0005F02D0B3F5806F28D0274A12686E
:10499C0012F0020F02D0B3F5C06F26D0234A126872
:1049AC0012F4007F03D0B3F5006F00F00D871F4A9F
:1049BC00D2F8F02012F0020F00F00887B3F5206F48
:1049CC0000F00687002000F0EEBCFDF7DFFD00F0E4
:1049DC00EABC04A8FFF76CF8059800F0E4BC01A849
:1049EC00FFF76CF9029800F0DEBC104B1B68C3F3A8
:1049FC00C1030F48D84000F0D6BCFDF7C7FD00F04E
:104A0C00D2BC04A8FFF754F8059800F0CCBC01A860
:104A1C00FFF754F9029800F0C6BC044B1B68C3F3B3
:104A2C00C1030348D84000F0BEBC00BF000C0244D8
:104A3C000090D003A44BD3F8D83013F460332ED0AD
:104A4C00A14A126812F0006F02D0B3F5004F2AD0C1
:104A5C009D4A126812F0005F02D0B3F5803F28D057
:104A6C00994A126812F0020F02D0B3F5C03F26D05B
:104A7C00954A126812F4007F03D0B3F5003F00F0A2
:104A8C00B186914AD2F8F02012F0020F00F0AC86F9
:104A9C00B3F5203F00F0AA86002000F084BCFDF79F
:104AAC0075FD00F080BC04A8FFF702F8059800F033
:104ABC007ABC01A8FFF702F9029800F074BC824B93
:104ACC001B68C3F3C1038148D84000F06CBC7E4B1B
:104ADC00D3F8D83013F4E0132ED07B4A126812F0BE
:104AEC00006F02D0B3F5802F2AD0774A126812F0EB
:104AFC00005F02D0B3F5002F28D0734A126812F071
:104B0C00020F02D0B3F5402F26D06F4A126812F470
:104B1C00007F03D0B3F5801F00F06B866A4AD2F891
:104B2C00F02012F0020F00F06686B3F5A01F00F023
:104B3C006486002000F037BCFDF728FD00F033BC84
:104B4C0004A8FEF7B5FF059800F02DBC01A8FFF7EF
:104B5C00B5F8029800F027BC5B4B1B68C3F3C1038C
:104B6C005A48D84000F01FBCFDF710FD00F01BBCEC
:104B7C0004A8FEF79DFF059800F015BC01A8FFF7EF
:104B8C009DF8029800F00FBC4F4B1B68C3F3C10398
:104B9C004E48D84000F007BC4B4BD3F8D83013F03C
:104BAC00E0632DD0484A126812F0006F02D0B3F1C6
:104BBC00807F28D0444A126812F0005F02D0B3F113
:104BCC00007F25D0404A126812F0020F02D0B3F1D8
:104BDC00407F22D03C4A126812F4007F03D0B3F11C
:104BEC00806F00F01486384AD2F8F02012F0020FD1
:104BFC0000F00F86B3F1A06F00F00D860020D2E319
:104C0C00FDF7C4FCCFE304A8FEF752FF0598CAE3F6
:104C1C0001A8FFF753F80298C5E32B4B1B68C3F3AD
:104C2C00C1032A48D840BEE3FDF7B0FCBBE304A89F
:104C3C00FEF73EFF0598B6E301A8FFF73FF8029890
:104C4C00B1E3214B1B68C3F3C1032048D840AAE34E
:104C5C001D4BD3F8DC3013F0070328D01A4A126826
:104C6C0012F0006F01D0012B24D0174A126812F0F9
:104C7C00005F01D0022B22D0134A126812F0020FEF
:104C8C0001D0032B24D0104A126812F4007F02D0FA
:104C9C00042B00F0CA850C4AD2F8F02012F0020F57
:104CAC0000F0C585052B00F0C48500207BE3FDF7E3
:104CBC006DFC78E304A8FEF7FBFE059873E301A8EE
:104CCC00FEF7FCFF02986EE3000C02440090D00348
:104CDC00A34B1B68C3F3C103A248D84063E3A04BAA
:104CEC00D3F8DC3013F0700328D09D4A126812F010
:104CFC00006F01D0102B24D0994A126812F0005F7B
:104D0C0001D0202B22D0964A126812F0020F01D04B
:104D1C00302B20D0924A126812F4007F02D0402B24
:104D2C0000F08A858E4AD2F8F02012F0020F00F0C3
:104D3C008585502B00F08485002034E3FDF726FC9C
:104D4C0031E304A8FEF7B4FE05982CE301A8FEF7A6
:104D5C00B5FF029827E3824B1B68C3F3C10381485C
:104D6C00D84020E3FDF736FC1DE304A8FEF7A0FEB7
:104D7C00059818E301A8FEF7A1FF029813E3784BFE
:104D8C001B68C3F3C1037748D8400CE3744BD3F8CA
:104D9C00E83013F007031DD0012B1ED0022B1FD0BF
:104DAC006F4A126812F4003F02D0032B00F05285B8
:104DBC006B4A126812F0020F01D0042B15D0684A0E
:104DCC00126812F4007F00F04785052B00F0468531
:104DDC000020E8E2FDF77EF8E5E2FCF747FEE2E2B0
:104DEC0004A8FEF765FE0698DDE25D4B1B68C3F375
:104DFC00C1035C48D840D6E2594AD2F8E83003F0F7
:104E0C000803D2F8F02012F0020F02D0002B00F0B1
:104E1C002785534AD2F8F02012F0006F00F023855A
:104E2C00002B40F022851846BDE24D4BD3F8E43000
:104E3C0013F4403316D0B3F5803F16D0484A1268AD
:104E4C0012F0020F02D0B3F5003F13D0444A12689F
:104E5C0012F4007F00F00C85B3F5403F00F00A859A
:104E6C000020A0E2FDF792FB9DE201A8FEF726FFD1
:104E7C00039898E23A4B1B68C3F3C1033948D840F6
:104E8C0091E2FDF783FB8EE201A8FEF717FF039872
:104E9C0089E2334B1B68C3F3C1033248D84082E22A
:104EAC002F4BD3F8E43013F4401316D0B3F5801F16
:104EBC0016D02B4A126812F0020F02D0B3F5001F65
:104ECC0013D0274A126812F4007F00F0D984B3F58E
:104EDC00401F00F0D784002065E2FDF77BFB62E207
:104EEC0001A8FEF7EBFE03985DE21D4B1B68C3F3B4
:104EFC00C1031C48D84056E2FDF76CFB53E201A8F5
:104F0C00FEF7DCFE03984EE2154B1B68C3F3C1039E
:104F1C001448D84047E2124BD3F8E43013F04073F6
:104F2C000DD0B3F1807F0DD00D4A106810F0020047
:104F3C0000F03982B3F1007F09D0002033E2FDF795
:104F4C0025FB30E201A8FEF7B9FE03982BE21368AB
:104F5C00C3F3C1030348D84025E2002023E200BF7D
:104F6C00000C02440090D003B3F5806F29D0B3F548
:104F7C00A06F10D1A04AD2F8E83003F04043126879
:104F8C0012F0020F27D033BB9B4B1B68C3F3C1033A
:104F9C009A48D84007E2002005E204A8FEF788FDF5
:104FAC00049800E201A8FEF789FE0398FBE1924BFE
:104FBC00D3F8F00010F0020000F0F5814FF400403F
:104FCC00F1E18D4BD3F8F00010F0006000F0EB81B4
:104FDC004FF4FA40E7E1884A126812F4007F03D0DC
:104FEC00B3F1804F00F05484834A126812F4003FEE
:104FFC0000F05084B3F1004F00F04E840020D2E159
:10500C007D4BD3F8DC3003F4E043B3F5405F2FD095
:10501C000BD8B3F5805F21D0B3F5005F23D013B963
:10502C00FDF7B4FABFE10020BDE1B3F5804F29D004
:10503C00B3F5A04F10D1704AD2F8E83003F04043DA
:10504C00126812F0020F27D033BB6B4B1B68C3F3F3
:10505C00C1036A48D840A6E10020A4E104A8FEF7E9
:10506C0027FD04989FE101A8FEF728FE03989AE11A
:10507C00614BD3F8F00010F0020000F094814FF473
:10508C00004090E15C4BD3F8F00010F0006000F0B1
:10509C008A814FF4FA4086E1574A126812F4007F75
:1050AC0003D0B3F1804F00F0F983534A126812F425
:1050BC00003F00F0F583B3F1004F00F0F3830020C4
:1050CC0071E100206FE1B3F5802F29D0B3F5A02F4B
:1050DC0010D1494AD2F8E83003F04043126812F07C
:1050EC00020F27D033BB444B1B68C3F3C1034348A7
:1050FC00D84058E1002056E104A8FEF7D9FC0498EA
:10510C0051E101A8FEF7DAFD03984CE13A4BD3F8D4
:10511C00F00010F0020000F046814FF4004042E134
:10512C00354BD3F8F00010F0006000F03C814FF4E8
:10513C00FA4038E1304A126812F4007F03D0B3F120
:10514C00804F00F0B1832C4A126812F4003F00F03B
:10515C00AD83B3F1004F00F0AB83002023E1264B6D
:10516C00D3F8DC3003F4E003B3F5401F2FD00BD899
:10517C00B3F5801F21D0B3F5001F23D013B9FDF771
:10518C0029FA10E100200EE1B3F5800F29D0B3F518
:10519C00A00F10D1184AD2F8E83003F0404312683F
:1051AC0012F0020F2CD05BBB134B1B68C3F3C10373
:1051BC001248D840F7E00020F5E004A8FEF778FC90
:1051CC000498F0E001A8FEF779FD0398EBE00A4B98
:1051DC00D3F8F00010F0020000F0E5804FF400402E
:1051EC00E1E0054BD3F8F00010F0006000F0DB803C
:1051FC004FF4FA40D7E000BF000C02440090D003FB
:10520C009F4A126812F4007F03D0B3F1804F00F074
:10521C0051839B4A126812F4003F00F04D83B3F1A6
:10522C00004F00F04B830020BDE0954BD3F8DC30F1
:10523C0003F0E063B3F1407F2FD00BD8B3F1807F44
:10524C0021D0B3F1007F23D013B9FDF7C3F9AAE045
:10525C000020A8E0B3F1806F28D0B3F1A06F10D17B
:10526C00874AD2F8E83003F04043126812F0020F7C
:10527C0025D023BB824B1B68C3F3C1038148D840A4
:10528C0091E000208FE004A8FEF712FC04988AE05D
:10529C0001A8FEF713FD039885E0794BD3F8F000D5
:1052AC0010F002007FD04FF400407CE0744BD3F838
:1052BC00F00010F0006076D04FF4FA4073E0704AC2
:1052CC00126812F4007F03D0B3F1804F00F0F88223
:1052DC006B4A126812F4003F00F0F482B3F1004FF5
:1052EC0000F0F28200205EE000205CE0B3F1804F21
:1052FC0028D0B3F1A04F10D1614AD2F8E83003F0B6
:10530C004043126812F0020F25D023BB5C4B1B6884
:10531C00C3F3C1035B48D84045E0002043E004A838
:10532C00FEF7C6FB04983EE001A8FEF7C7FC039805
:10533C0039E0534BD3F8F00010F0020033D04FF4A7
:10534C00004030E04E4BD3F8F00010F000602AD053
:10535C004FF4FA4027E04A4A126812F4007F03D057
:10536C00B3F1804F00F0B282454A126812F4003F4C
:10537C0000F0AE82B3F1004F00F0AC82002012E0DE
:10538C003F4AD2F8E83003F44073126812F4003F3D
:10539C0002D0002B00F0A082B3F5807F05D0B3F5CE
:1053AC00007F07D000200BB000BD07A8FEF77AFAEB
:1053BC000898F8E704A8FEF77BFB0598F3E70020B4
:1053CC00F1E7032B00F08A82042B10D12C4AD2F87F
:1053DC00E83003F04043126812F0020F13D093B977
:1053EC00274B1B68C3F3C1032648D840DBE70020DA
:1053FC00D9E707A8FEF756FA0898D4E701A8FEF7F4
:10540C005DFC0198CFE71E4A126812F4007F03D0AE
:10541C00B3F1804F00F06482194A126812F4003F15
:10542C0000F06082B3F1004F00F05E820020BAE71A
:10543C00134BD3F8E03003F03803102B2BD009D8E2
:10544C0023B3082B04D104A8FEF732FB0498AAE777
:10545C000020A8E7182B00F04982202B14D1084A11
:10546C00D2F8E83003F04043126812F0020F17D064
:10547C00B3B9034B1B68C3F3C1030248D84092E78E
:10548C00000C02440090D00300208CE707A8FEF724
:10549C0009FA089887E701A8FEF710FC019882E743
:1054AC009F4A126812F4007F03D0B3F1804F00F0D2
:1054BC001F829B4A126812F4003F00F01B82B3F16A
:1054CC00004F00F0198200206DE7954BD3F8E030C7
:1054DC0003F4E073802B28D009D80BB3402B04D1F4
:1054EC0004A8FEF7E5FA04985DE700205BE7C02B03
:1054FC0000F00482B3F5807F10D1894AD2F8E830ED
:10550C0003F04043126812F0020F13D093B9844B8E
:10551C001B68C3F3C1038348D84044E7002042E72B
:10552C0007A8FEF7BFF908983DE701A8FEF7C6FBF0
:10553C00019838E77A4A126812F4007F03D0B3F16D
:10554C00804F00F0DD81764A126812F4003F00F0C3
:10555C00D981B3F1004F00F0D781002023E7FDF78C
:10556C0027F820E704A8FEF7A3FA05981BE701A883
:10557C00FEF7A4FB029816E7694B1B68C3F3C10343
:10558C006848D8400FE7664BD3F8E03013F4E0439B
:10559C002CD0634A126812F0006F02D0B3F5805F12
:1055AC0027D05F4A126812F0005F02D0B3F5005F9B
:1055BC0024D05B4A126812F0020F02D0B3F5405FA0
:1055CC0021D0574A126812F4007F03D0B3F5804FF4
:1055DC0000F0A281524A126812F4003F00F09E8142
:1055EC00B3F5A04F00F09C810020DCE6FCF7F2FF45
:1055FC00D9E604A8FEF75CFA0598D4E601A8FEF7F4
:10560C005DFB0298CFE6464B1B68C3F3C1034548CC
:10561C00D840C8E6FCF7CCFFC5E604A8FEF748FA6C
:10562C000598C0E601A8FEF749FB0298BBE63C4B87
:10563C001B68C3F3C1033B48D840B4E6384BD3F8DE
:10564C00E43003F00303022B22D009D8EBB1012B79
:10565C0004D107A8FEF726F90898A4E60020A2E6D4
:10566C00032B10D12E4AD2F8E83003F040431268D5
:10567C0012F0020F11D083B9294B1B68C3F3C1037D
:10568C002848D8408FE600208DE6FCF723FC8AE6FC
:10569C0004A8FEF70DFA069885E6214A126812F462
:1056AC00007F03D0B3F1804F00F042811C4A126896
:1056BC0012F4003F00F03E81B3F1004F00F03C814A
:1056CC00002070E6164AD2F8E83003F03003126876
:1056DC0012F4005F02D0002B00F03B81104A1268DC
:1056EC0012F0007F01D0102B14D00D4AD2F8F0200C
:1056FC0012F0020F02D0202B00F02D81084AD2F8B4
:10570C00F02012F0006F00F02981302B00F028817E
:10571C00002048E607A8FEF7C5F8089843E600BF46
:10572C00000C02440090D003914BD3F8E43003F00A
:10573C003003102B11D08E4A126812F0005F01D08A
:10574C00202B0FD08A4A126812F4005F00F00B81F4
:10575C00302B00F00A81002025E607A8FEF7A2F8FE
:10576C00089820E601A8FEF7A9FA02981BE64FF468
:10577C00004070474FF4FA407047002070477D4856
:10578C0011E67D480FE600200DE67C480BE67948D3
:10579C0009E6794807E6002005E6784803E67648EE
:1057AC0001E60020FFE54FF40040FCE57248FAE505
:1057BC000020F8E54FF40040F5E56F48F3E50020D4
:1057CC00F1E54FF40040EEE56B48ECE50020EAE52E
:1057DC004FF40040E7E56848E5E50020E3E54FF4C9
:1057EC000040E0E56448DEE50020DCE54FF40040D5
:1057FC00D9E56148D7E50020D5E54FF40040D2E566
:10580C005D48D0E50020CEE54FF40040CBE55A488A
:10581C00C9E50020C7E54FF40040C4E55648C2E591
:10582C000020C0E54FF40040BDE55348BBE5002027
:10583C00B9E54FF40040B6E54F48B4E50020B2E5B9
:10584C004FF40040AFE54C48ADE50020ABE54FF41C
:10585C000040A8E54948A6E50020A4E54648A2E595
:10586C004FF400409FE500209DE54FF4FA409AE587
:10587C00002098E5404896E5002094E53E4892E5E6
:10588C00002090E53C488EE500208CE53A488AE5FE
:10589C00394888E5002086E5384884E5364882E5B5
:1058AC00002080E535487EE533487CE500207AE52C
:1058BC00324878E5304876E5002074E52F4872E5EB
:1058CC002D4870E500206EE52C486CE52A486AE509
:1058DC00002068E5294866E5284864E5254862E526
:1058EC00254860E500205EE524485CE521485AE542
:1058FC00214858E5002056E5204854E51D4852E55E
:10590C001D4850E500204EE51C484CE51A484AE578
:10591C00002048E5194846E5174844E5002042E5D3
:10592C00164840E514483EE500203CE513483AE5AE
:10593C00114838E5002036E5104834E54FF40040B6
:10594C0031E54FF4FA402EE500202CE548F2120028
:10595C0029E50B4827E54FF4004024E5002022E51B
:10596C004FF4FA401FE500201DE505481BE5704784
:10597C00000C02440080BB0000093D0040787D0112
:10598C00006CDC027047000070B58CB000230793EC
:10599C00089309930A930B930268384B9A4201D0EF
:1059AC000CB070BD364BD3F8882042F40022C3F8FB
:1059BC008820D3F8882002F400220192019AD3F8AF
:1059CC00882042F48012C3F88820D3F8882002F48F
:1059DC0080120292029AD3F8882042F40012C3F883
:1059EC008820D3F8882002F400120392039AD3F88B
:1059FC008C2042F00402C3F88C20D3F88C2002F0E7
:105A0C0004020492049AD3F88C2042F00102C3F8E9
:105A1C008C20D3F88C2002F001020592059AD3F861
:105A2C008C2042F00202C3F88C20D3F88C3003F0A7
:105A3C0002030693069B32230793022408940A94CC
:105A4C000B250B9507A90F48FBF710F9A623079315
:105A5C000894002609960A940B9507A90A48FBF7A7
:105A6C0005F94FF410430793089409960A940B9583
:105A7C0007A90648FBF7FAF892E700BF008002403E
:105A8C00000C0244000802420000024200040242E0
:105A9C0010B5CAB0044600214591469147914891F2
:105AAC0049914FF4847202A802F05CFF22681E4BED
:105ABC009A4201D04AB010BD02A800220423CDE9BD
:105ACC0002234FF48073C0F8BC30FCF771FE38BB76
